{
  "_format": "hh-sol-artifact-1",
  "contractName": "MYNFT",
  "sourceName": "contracts/MYNFT.sol",
  "abi": [
    {
      "inputs": [
        {
          "internalType": "address",
          "name": "initialOwner",
          "type": "address"
        }
      ],
      "stateMutability": "nonpayable",
      "type": "constructor"
    },
    {
      "inputs": [
        {
          "internalType": "address",
          "name": "sender",
          "type": "address"
        },
        {
          "internalType": "uint256",
          "name": "tokenId",
          "type": "uint256"
        },
        {
          "internalType": "address",
          "name": "owner",
          "type": "address"
        }
      ],
      "name": "ERC721IncorrectOwner",
      "type": "error"
    },
    {
      "inputs": [
        {
          "internalType": "address",
          "name": "operator",
          "type": "address"
        },
        {
          "internalType": "uint256",
          "name": "tokenId",
          "type": "uint256"
        }
      ],
      "name": "ERC721InsufficientApproval",
      "type": "error"
    },
    {
      "inputs": [
        {
          "internalType": "address",
          "name": "approver",
          "type": "address"
        }
      ],
      "name": "ERC721InvalidApprover",
      "type": "error"
    },
    {
      "inputs": [
        {
          "internalType": "address",
          "name": "operator",
          "type": "address"
        }
      ],
      "name": "ERC721InvalidOperator",
      "type": "error"
    },
    {
      "inputs": [
        {
          "internalType": "address",
          "name": "owner",
          "type": "address"
        }
      ],
      "name": "ERC721InvalidOwner",
      "type": "error"
    },
    {
      "inputs": [
        {
          "internalType": "address",
          "name": "receiver",
          "type": "address"
        }
      ],
      "name": "ERC721InvalidReceiver",
      "type": "error"
    },
    {
      "inputs": [
        {
          "internalType": "address",
          "name": "sender",
          "type": "address"
        }
      ],
      "name": "ERC721InvalidSender",
      "type": "error"
    },
    {
      "inputs": [
        {
          "internalType": "uint256",
          "name": "tokenId",
          "type": "uint256"
        }
      ],
      "name": "ERC721NonexistentToken",
      "type": "error"
    },
    {
      "inputs": [
        {
          "internalType": "address",
          "name": "owner",
          "type": "address"
        }
      ],
      "name": "OwnableInvalidOwner",
      "type": "error"
    },
    {
      "inputs": [
        {
          "internalType": "address",
          "name": "account",
          "type": "address"
        }
      ],
      "name": "OwnableUnauthorizedAccount",
      "type": "error"
    },
    {
      "anonymous": false,
      "inputs": [
        {
          "indexed": true,
          "internalType": "address",
          "name": "owner",
          "type": "address"
        },
        {
          "indexed": true,
          "internalType": "address",
          "name": "approved",
          "type": "address"
        },
        {
          "indexed": true,
          "internalType": "uint256",
          "name": "tokenId",
          "type": "uint256"
        }
      ],
      "name": "Approval",
      "type": "event"
    },
    {
      "anonymous": false,
      "inputs": [
        {
          "indexed": true,
          "internalType": "address",
          "name": "owner",
          "type": "address"
        },
        {
          "indexed": true,
          "internalType": "address",
          "name": "operator",
          "type": "address"
        },
        {
          "indexed": false,
          "internalType": "bool",
          "name": "approved",
          "type": "bool"
        }
      ],
      "name": "ApprovalForAll",
      "type": "event"
    },
    {
      "anonymous": false,
      "inputs": [
        {
          "indexed": false,
          "internalType": "uint256",
          "name": "_fromTokenId",
          "type": "uint256"
        },
        {
          "indexed": false,
          "internalType": "uint256",
          "name": "_toTokenId",
          "type": "uint256"
        }
      ],
      "name": "BatchMetadataUpdate",
      "type": "event"
    },
    {
      "anonymous": false,
      "inputs": [
        {
          "indexed": false,
          "internalType": "uint256",
          "name": "_tokenId",
          "type": "uint256"
        }
      ],
      "name": "MetadataUpdate",
      "type": "event"
    },
    {
      "anonymous": false,
      "inputs": [
        {
          "indexed": true,
          "internalType": "address",
          "name": "previousOwner",
          "type": "address"
        },
        {
          "indexed": true,
          "internalType": "address",
          "name": "newOwner",
          "type": "address"
        }
      ],
      "name": "OwnershipTransferred",
      "type": "event"
    },
    {
      "anonymous": false,
      "inputs": [
        {
          "indexed": true,
          "internalType": "address",
          "name": "from",
          "type": "address"
        },
        {
          "indexed": true,
          "internalType": "address",
          "name": "to",
          "type": "address"
        },
        {
          "indexed": true,
          "internalType": "uint256",
          "name": "tokenId",
          "type": "uint256"
        }
      ],
      "name": "Transfer",
      "type": "event"
    },
    {
      "inputs": [
        {
          "internalType": "address",
          "name": "to",
          "type": "address"
        },
        {
          "internalType": "uint256",
          "name": "tokenId",
          "type": "uint256"
        }
      ],
      "name": "approve",
      "outputs": [],
      "stateMutability": "nonpayable",
      "type": "function"
    },
    {
      "inputs": [
        {
          "internalType": "address",
          "name": "owner",
          "type": "address"
        }
      ],
      "name": "balanceOf",
      "outputs": [
        {
          "internalType": "uint256",
          "name": "",
          "type": "uint256"
        }
      ],
      "stateMutability": "view",
      "type": "function"
    },
    {
      "inputs": [
        {
          "internalType": "uint256",
          "name": "tokenId",
          "type": "uint256"
        }
      ],
      "name": "getApproved",
      "outputs": [
        {
          "internalType": "address",
          "name": "",
          "type": "address"
        }
      ],
      "stateMutability": "view",
      "type": "function"
    },
    {
      "inputs": [
        {
          "internalType": "address",
          "name": "owner",
          "type": "address"
        },
        {
          "internalType": "address",
          "name": "operator",
          "type": "address"
        }
      ],
      "name": "isApprovedForAll",
      "outputs": [
        {
          "internalType": "bool",
          "name": "",
          "type": "bool"
        }
      ],
      "stateMutability": "view",
      "type": "function"
    },
    {
      "inputs": [
        {
          "internalType": "string",
          "name": "uri",
          "type": "string"
        }
      ],
      "name": "mint",
      "outputs": [],
      "stateMutability": "nonpayable",
      "type": "function"
    },
    {
      "inputs": [],
      "name": "name",
      "outputs": [
        {
          "internalType": "string",
          "name": "",
          "type": "string"
        }
      ],
      "stateMutability": "view",
      "type": "function"
    },
    {
      "inputs": [],
      "name": "owner",
      "outputs": [
        {
          "internalType": "address",
          "name": "",
          "type": "address"
        }
      ],
      "stateMutability": "view",
      "type": "function"
    },
    {
      "inputs": [
        {
          "internalType": "uint256",
          "name": "tokenId",
          "type": "uint256"
        }
      ],
      "name": "ownerOf",
      "outputs": [
        {
          "internalType": "address",
          "name": "",
          "type": "address"
        }
      ],
      "stateMutability": "view",
      "type": "function"
    },
    {
      "inputs": [],
      "name": "renounceOwnership",
      "outputs": [],
      "stateMutability": "nonpayable",
      "type": "function"
    },
    {
      "inputs": [
        {
          "internalType": "address",
          "name": "from",
          "type": "address"
        },
        {
          "internalType": "address",
          "name": "to",
          "type": "address"
        },
        {
          "internalType": "uint256",
          "name": "tokenId",
          "type": "uint256"
        }
      ],
      "name": "safeTransferFrom",
      "outputs": [],
      "stateMutability": "nonpayable",
      "type": "function"
    },
    {
      "inputs": [
        {
          "internalType": "address",
          "name": "from",
          "type": "address"
        },
        {
          "internalType": "address",
          "name": "to",
          "type": "address"
        },
        {
          "internalType": "uint256",
          "name": "tokenId",
          "type": "uint256"
        },
        {
          "internalType": "bytes",
          "name": "data",
          "type": "bytes"
        }
      ],
      "name": "safeTransferFrom",
      "outputs": [],
      "stateMutability": "nonpayable",
      "type": "function"
    },
    {
      "inputs": [
        {
          "internalType": "address",
          "name": "operator",
          "type": "address"
        },
        {
          "internalType": "bool",
          "name": "approved",
          "type": "bool"
        }
      ],
      "name": "setApprovalForAll",
      "outputs": [],
      "stateMutability": "nonpayable",
      "type": "function"
    },
    {
      "inputs": [
        {
          "internalType": "bytes4",
          "name": "interfaceId",
          "type": "bytes4"
        }
      ],
      "name": "supportsInterface",
      "outputs": [
        {
          "internalType": "bool",
          "name": "",
          "type": "bool"
        }
      ],
      "stateMutability": "view",
      "type": "function"
    },
    {
      "inputs": [],
      "name": "symbol",
      "outputs": [
        {
          "internalType": "string",
          "name": "",
          "type": "string"
        }
      ],
      "stateMutability": "view",
      "type": "function"
    },
    {
      "inputs": [],
      "name": "tokenId",
      "outputs": [
        {
          "internalType": "uint256",
          "name": "",
          "type": "uint256"
        }
      ],
      "stateMutability": "view",
      "type": "function"
    },
    {
      "inputs": [
        {
          "internalType": "uint256",
          "name": "_tokenId",
          "type": "uint256"
        }
      ],
      "name": "tokenURI",
      "outputs": [
        {
          "internalType": "string",
          "name": "",
          "type": "string"
        }
      ],
      "stateMutability": "view",
      "type": "function"
    },
    {
      "inputs": [],
      "name": "totalSupply",
      "outputs": [
        {
          "internalType": "uint256",
          "name": "",
          "type": "uint256"
        }
      ],
      "stateMutability": "pure",
      "type": "function"
    },
    {
      "inputs": [
        {
          "internalType": "address",
          "name": "from",
          "type": "address"
        },
        {
          "internalType": "address",
          "name": "to",
          "type": "address"
        },
        {
          "internalType": "uint256",
          "name": "tokenId",
          "type": "uint256"
        }
      ],
      "name": "transferFrom",
      "outputs": [],
      "stateMutability": "nonpayable",
      "type": "function"
    },
    {
      "inputs": [
        {
          "internalType": "address",
          "name": "newOwner",
          "type": "address"
        }
      ],
      "name": "transferOwnership",
      "outputs": [],
      "stateMutability": "nonpayable",
      "type": "function"
    }
  ],
  "bytecode": "0x608060405234801561001057600080fd5b50604051612d98380380612d9883398181016040528101906100329190610272565b806040518060400160405280600581526020017f4d594e46540000000000000000000000000000000000000000000000000000008152506040518060400160405280600481526020017f4d4e46540000000000000000000000000000000000000000000000000000000081525081600090816100ae91906104ef565b5080600190816100be91906104ef565b505050600073ffffffffffffffffffffffffffffffffffffffff168173ffffffffffffffffffffffffffffffffffffffff16036101335760006040517f1e4fbdf700000000000000000000000000000000000000000000000000000000815260040161012a91906105d0565b60405180910390fd5b6101428161014960201b60201c565b50506105eb565b6000600760009054906101000a900473ffffffffffffffffffffffffffffffffffffffff16905081600760006101000a81548173ffffffffffffffffffffffffffffffffffffffff021916908373ffffffffffffffffffffffffffffffffffffffff1602179055508173ffffffffffffffffffffffffffffffffffffffff168173ffffffffffffffffffffffffffffffffffffffff167f8be0079c531659141344cd1fd0a4f28419497f9722a3daafe3b4186f6b6457e060405160405180910390a35050565b600080fd5b600073ffffffffffffffffffffffffffffffffffffffff82169050919050565b600061023f82610214565b9050919050565b61024f81610234565b811461025a57600080fd5b50565b60008151905061026c81610246565b92915050565b6000602082840312156102885761028761020f565b5b60006102968482850161025d565b91505092915050565b600081519050919050565b7f4e487b7100000000000000000000000000000000000000000000000000000000600052604160045260246000fd5b7f4e487b7100000000000000000000000000000000000000000000000000000000600052602260045260246000fd5b6000600282049050600182168061032057607f821691505b602082108103610333576103326102d9565b5b50919050565b60008190508160005260206000209050919050565b60006020601f8301049050919050565b600082821b905092915050565b60006008830261039b7fffffffffffffffffffffffffffffffffffffffffffffffffffffffffffffffff8261035e565b6103a5868361035e565b95508019841693508086168417925050509392505050565b6000819050919050565b6000819050919050565b60006103ec6103e76103e2846103bd565b6103c7565b6103bd565b9050919050565b6000819050919050565b610406836103d1565b61041a610412826103f3565b84845461036b565b825550505050565b600090565b61042f610422565b61043a8184846103fd565b505050565b5b8181101561045e57610453600082610427565b600181019050610440565b5050565b601f8211156104a35761047481610339565b61047d8461034e565b8101602085101561048c578190505b6104a06104988561034e565b83018261043f565b50505b505050565b600082821c905092915050565b60006104c6600019846008026104a8565b1980831691505092915050565b60006104df83836104b5565b9150826002028217905092915050565b6104f88261029f565b67ffffffffffffffff811115610511576105106102aa565b5b61051b8254610308565b610526828285610462565b600060209050601f8311600181146105595760008415610547578287015190505b61055185826104d3565b8655506105b9565b601f19841661056786610339565b60005b8281101561058f5784890151825560018201915060208501945060208101905061056a565b868310156105ac57848901516105a8601f8916826104b5565b8355505b6001600288020188555050505b505050505050565b6105ca81610234565b82525050565b60006020820190506105e560008301846105c1565b92915050565b61279e806105fa6000396000f3fe608060405234801561001057600080fd5b50600436106101215760003560e01c806370a08231116100ad578063b88d4fde11610071578063b88d4fde146102f6578063c87b56dd14610312578063d85d3d2714610342578063e985e9c51461035e578063f2fde38b1461038e57610121565b806370a0823114610264578063715018a6146102945780638da5cb5b1461029e57806395d89b41146102bc578063a22cb465146102da57610121565b806317d70f7c116100f457806317d70f7c146101c057806318160ddd146101de57806323b872dd146101fc57806342842e0e146102185780636352211e1461023457610121565b806301ffc9a71461012657806306fdde0314610156578063081812fc14610174578063095ea7b3146101a4575b600080fd5b610140600480360381019061013b9190611c09565b6103aa565b60405161014d9190611c51565b60405180910390f35b61015e61048c565b60405161016b9190611cfc565b60405180910390f35b61018e60048036038101906101899190611d54565b61051e565b60405161019b9190611dc2565b60405180910390f35b6101be60048036038101906101b99190611e09565b61053a565b005b6101c8610550565b6040516101d59190611e58565b60405180910390f35b6101e6610556565b6040516101f39190611e58565b60405180910390f35b61021660048036038101906102119190611e73565b610560565b005b610232600480360381019061022d9190611e73565b610662565b005b61024e60048036038101906102499190611d54565b610682565b60405161025b9190611dc2565b60405180910390f35b61027e60048036038101906102799190611ec6565b610694565b60405161028b9190611e58565b60405180910390f35b61029c61074e565b005b6102a6610762565b6040516102b39190611dc2565b60405180910390f35b6102c461078c565b6040516102d19190611cfc565b60405180910390f35b6102f460048036038101906102ef9190611f1f565b61081e565b005b610310600480360381019061030b9190612094565b610834565b005b61032c60048036038101906103279190611d54565b610859565b6040516103399190611cfc565b60405180910390f35b61035c600480360381019061035791906121b8565b61086b565b005b61037860048036038101906103739190612201565b61089e565b6040516103859190611c51565b60405180910390f35b6103a860048036038101906103a39190611ec6565b610932565b005b60007f80ac58cd000000000000000000000000000000000000000000000000000000007bffffffffffffffffffffffffffffffffffffffffffffffffffffffff1916827bffffffffffffffffffffffffffffffffffffffffffffffffffffffff1916148061047557507f5b5e139f000000000000000000000000000000000000000000000000000000007bffffffffffffffffffffffffffffffffffffffffffffffffffffffff1916827bffffffffffffffffffffffffffffffffffffffffffffffffffffffff1916145b806104855750610484826109b8565b5b9050919050565b60606000805461049b90612270565b80601f01602080910402602001604051908101604052809291908181526020018280546104c790612270565b80156105145780601f106104e957610100808354040283529160200191610514565b820191906000526020600020905b8154815290600101906020018083116104f757829003601f168201915b5050505050905090565b600061052982610a19565b5061053382610aa1565b9050919050565b61054c8282610547610ade565b610ae6565b5050565b60085481565b6000612710905090565b600073ffffffffffffffffffffffffffffffffffffffff168273ffffffffffffffffffffffffffffffffffffffff16036105d25760006040517f64a0ae920000000000000000000000000000000000000000000000000000000081526004016105c99190611dc2565b60405180910390fd5b60006105e683836105e1610ade565b610af8565b90508373ffffffffffffffffffffffffffffffffffffffff168173ffffffffffffffffffffffffffffffffffffffff161461065c578382826040517f64283d7b000000000000000000000000000000000000000000000000000000008152600401610653939291906122a1565b60405180910390fd5b50505050565b61067d83838360405180602001604052806000815250610834565b505050565b600061068d82610a19565b9050919050565b60008073ffffffffffffffffffffffffffffffffffffffff168273ffffffffffffffffffffffffffffffffffffffff16036107075760006040517f89c62b640000000000000000000000000000000000000000000000000000000081526004016106fe9190611dc2565b60405180910390fd5b600360008373ffffffffffffffffffffffffffffffffffffffff1673ffffffffffffffffffffffffffffffffffffffff168152602001908152602001600020549050919050565b610756610d12565b6107606000610d99565b565b6000600760009054906101000a900473ffffffffffffffffffffffffffffffffffffffff16905090565b60606001805461079b90612270565b80601f01602080910402602001604051908101604052809291908181526020018280546107c790612270565b80156108145780601f106107e957610100808354040283529160200191610814565b820191906000526020600020905b8154815290600101906020018083116107f757829003601f168201915b5050505050905090565b610830610829610ade565b8383610e5f565b5050565b61083f848484610560565b61085361084a610ade565b85858585610fce565b50505050565b60606108648261117f565b9050919050565b61087733600854611292565b610883600854826112b0565b6008600081548092919061089690612307565b919050555050565b6000600560008473ffffffffffffffffffffffffffffffffffffffff1673ffffffffffffffffffffffffffffffffffffffff16815260200190815260200160002060008373ffffffffffffffffffffffffffffffffffffffff1673ffffffffffffffffffffffffffffffffffffffff16815260200190815260200160002060009054906101000a900460ff16905092915050565b61093a610d12565b600073ffffffffffffffffffffffffffffffffffffffff168173ffffffffffffffffffffffffffffffffffffffff16036109ac5760006040517f1e4fbdf70000000000000000000000000000000000000000000000000000000081526004016109a39190611dc2565b60405180910390fd5b6109b581610d99565b50565b6000634906490660e01b7bffffffffffffffffffffffffffffffffffffffffffffffffffffffff1916827bffffffffffffffffffffffffffffffffffffffffffffffffffffffff19161480610a125750610a118261130c565b5b9050919050565b600080610a25836113ee565b9050600073ffffffffffffffffffffffffffffffffffffffff168173ffffffffffffffffffffffffffffffffffffffff1603610a9857826040517f7e273289000000000000000000000000000000000000000000000000000000008152600401610a8f9190611e58565b60405180910390fd5b80915050919050565b60006004600083815260200190815260200160002060009054906101000a900473ffffffffffffffffffffffffffffffffffffffff169050919050565b600033905090565b610af3838383600161142b565b505050565b600080610b04846113ee565b9050600073ffffffffffffffffffffffffffffffffffffffff168373ffffffffffffffffffffffffffffffffffffffff1614610b4657610b458184866115f0565b5b600073ffffffffffffffffffffffffffffffffffffffff168173ffffffffffffffffffffffffffffffffffffffff1614610bd757610b8860008560008061142b565b6001600360008373ffffffffffffffffffffffffffffffffffffffff1673ffffffffffffffffffffffffffffffffffffffff168152602001908152602001600020600082825403925050819055505b600073ffffffffffffffffffffffffffffffffffffffff168573ffffffffffffffffffffffffffffffffffffffff1614610c5a576001600360008773ffffffffffffffffffffffffffffffffffffffff1673ffffffffffffffffffffffffffffffffffffffff168152602001908152602001600020600082825401925050819055505b846002600086815260200190815260200160002060006101000a81548173ffffffffffffffffffffffffffffffffffffffff021916908373ffffffffffffffffffffffffffffffffffffffff160217905550838573ffffffffffffffffffffffffffffffffffffffff168273ffffffffffffffffffffffffffffffffffffffff167fddf252ad1be2c89b69c2b068fc378daa952ba7f163c4a11628f55a4df523b3ef60405160405180910390a4809150509392505050565b610d1a610ade565b73ffffffffffffffffffffffffffffffffffffffff16610d38610762565b73ffffffffffffffffffffffffffffffffffffffff1614610d9757610d5b610ade565b6040517f118cdaa7000000000000000000000000000000000000000000000000000000008152600401610d8e9190611dc2565b60405180910390fd5b565b6000600760009054906101000a900473ffffffffffffffffffffffffffffffffffffffff16905081600760006101000a81548173ffffffffffffffffffffffffffffffffffffffff021916908373ffffffffffffffffffffffffffffffffffffffff1602179055508173ffffffffffffffffffffffffffffffffffffffff168173ffffffffffffffffffffffffffffffffffffffff167f8be0079c531659141344cd1fd0a4f28419497f9722a3daafe3b4186f6b6457e060405160405180910390a35050565b600073ffffffffffffffffffffffffffffffffffffffff168273ffffffffffffffffffffffffffffffffffffffff1603610ed057816040517f5b08ba18000000000000000000000000000000000000000000000000000000008152600401610ec79190611dc2565b60405180910390fd5b80600560008573ffffffffffffffffffffffffffffffffffffffff1673ffffffffffffffffffffffffffffffffffffffff16815260200190815260200160002060008473ffffffffffffffffffffffffffffffffffffffff1673ffffffffffffffffffffffffffffffffffffffff16815260200190815260200160002060006101000a81548160ff0219169083151502179055508173ffffffffffffffffffffffffffffffffffffffff168373ffffffffffffffffffffffffffffffffffffffff167f17307eab39ab6107e8899845ad3d59bd9653f200f220920489ca2b5937696c3183604051610fc19190611c51565b60405180910390a3505050565b60008373ffffffffffffffffffffffffffffffffffffffff163b1115611178578273ffffffffffffffffffffffffffffffffffffffff1663150b7a02868685856040518563ffffffff1660e01b815260040161102d94939291906123a4565b6020604051808303816000875af192505050801561106957506040513d601f19601f820116820180604052508101906110669190612405565b60015b6110ed573d8060008114611099576040519150601f19603f3d011682016040523d82523d6000602084013e61109e565b606091505b5060008151036110e557836040517f64a0ae920000000000000000000000000000000000000000000000000000000081526004016110dc9190611dc2565b60405180910390fd5b805181602001fd5b63150b7a0260e01b7bffffffffffffffffffffffffffffffffffffffffffffffffffffffff1916817bffffffffffffffffffffffffffffffffffffffffffffffffffffffff19161461117657836040517f64a0ae9200000000000000000000000000000000000000000000000000000000815260040161116d9190611dc2565b60405180910390fd5b505b5050505050565b606061118a82610a19565b5060006006600084815260200190815260200160002080546111ab90612270565b80601f01602080910402602001604051908101604052809291908181526020018280546111d790612270565b80156112245780601f106111f957610100808354040283529160200191611224565b820191906000526020600020905b81548152906001019060200180831161120757829003601f168201915b5050505050905060006112356116b4565b9050600081510361124a57819250505061128d565b60008251111561127f57808260405160200161126792919061246e565b6040516020818303038152906040529250505061128d565b611288846116cb565b925050505b919050565b6112ac828260405180602001604052806000815250611734565b5050565b806006600084815260200190815260200160002090816112d0919061263e565b507ff8e1a15aba9398e019f0b49df1a4fde98ee17ae345cb5f6b5e2c27f5033e8ce7826040516113009190611e58565b60405180910390a15050565b60007f80ac58cd000000000000000000000000000000000000000000000000000000007bffffffffffffffffffffffffffffffffffffffffffffffffffffffff1916827bffffffffffffffffffffffffffffffffffffffffffffffffffffffff191614806113d757507f5b5e139f000000000000000000000000000000000000000000000000000000007bffffffffffffffffffffffffffffffffffffffffffffffffffffffff1916827bffffffffffffffffffffffffffffffffffffffffffffffffffffffff1916145b806113e757506113e682611758565b5b9050919050565b60006002600083815260200190815260200160002060009054906101000a900473ffffffffffffffffffffffffffffffffffffffff169050919050565b80806114645750600073ffffffffffffffffffffffffffffffffffffffff168273ffffffffffffffffffffffffffffffffffffffff1614155b1561159857600061147484610a19565b9050600073ffffffffffffffffffffffffffffffffffffffff168373ffffffffffffffffffffffffffffffffffffffff16141580156114df57508273ffffffffffffffffffffffffffffffffffffffff168173ffffffffffffffffffffffffffffffffffffffff1614155b80156114f257506114f0818461089e565b155b1561153457826040517fa9fbf51f00000000000000000000000000000000000000000000000000000000815260040161152b9190611dc2565b60405180910390fd5b811561159657838573ffffffffffffffffffffffffffffffffffffffff168273ffffffffffffffffffffffffffffffffffffffff167f8c5be1e5ebec7d5bd14f71427d1e84f3dd0314c0f7b2291e5b200ac8c7c3b92560405160405180910390a45b505b836004600085815260200190815260200160002060006101000a81548173ffffffffffffffffffffffffffffffffffffffff021916908373ffffffffffffffffffffffffffffffffffffffff16021790555050505050565b6115fb8383836117c2565b6116af57600073ffffffffffffffffffffffffffffffffffffffff168373ffffffffffffffffffffffffffffffffffffffff160361167057806040517f7e2732890000000000000000000000000000000000000000000000000000000081526004016116679190611e58565b60405180910390fd5b81816040517f177e802f0000000000000000000000000000000000000000000000000000000081526004016116a6929190612710565b60405180910390fd5b505050565b606060405180602001604052806000815250905090565b60606116d682610a19565b5060006116e16116b4565b90506000815111611701576040518060200160405280600081525061172c565b8061170b84611883565b60405160200161171c92919061246e565b6040516020818303038152906040525b915050919050565b61173e8383611951565b611753611749610ade565b6000858585610fce565b505050565b60007f01ffc9a7000000000000000000000000000000000000000000000000000000007bffffffffffffffffffffffffffffffffffffffffffffffffffffffff1916827bffffffffffffffffffffffffffffffffffffffffffffffffffffffff1916149050919050565b60008073ffffffffffffffffffffffffffffffffffffffff168373ffffffffffffffffffffffffffffffffffffffff161415801561187a57508273ffffffffffffffffffffffffffffffffffffffff168473ffffffffffffffffffffffffffffffffffffffff16148061183b575061183a848461089e565b5b8061187957508273ffffffffffffffffffffffffffffffffffffffff1661186183610aa1565b73ffffffffffffffffffffffffffffffffffffffff16145b5b90509392505050565b60606000600161189284611a4a565b01905060008167ffffffffffffffff8111156118b1576118b0611f69565b5b6040519080825280601f01601f1916602001820160405280156118e35781602001600182028036833780820191505090505b509050600082602001820190505b600115611946578080600190039150507f3031323334353637383961626364656600000000000000000000000000000000600a86061a8153600a858161193a57611939612739565b5b049450600085036118f1575b819350505050919050565b600073ffffffffffffffffffffffffffffffffffffffff168273ffffffffffffffffffffffffffffffffffffffff16036119c35760006040517f64a0ae920000000000000000000000000000000000000000000000000000000081526004016119ba9190611dc2565b60405180910390fd5b60006119d183836000610af8565b9050600073ffffffffffffffffffffffffffffffffffffffff168173ffffffffffffffffffffffffffffffffffffffff1614611a455760006040517f73c6ac6e000000000000000000000000000000000000000000000000000000008152600401611a3c9190611dc2565b60405180910390fd5b505050565b600080600090507a184f03e93ff9f4daa797ed6e38ed64bf6a1f0100000000000000008310611aa8577a184f03e93ff9f4daa797ed6e38ed64bf6a1f0100000000000000008381611a9e57611a9d612739565b5b0492506040810190505b6d04ee2d6d415b85acef81000000008310611ae5576d04ee2d6d415b85acef81000000008381611adb57611ada612739565b5b0492506020810190505b662386f26fc100008310611b1457662386f26fc100008381611b0a57611b09612739565b5b0492506010810190505b6305f5e1008310611b3d576305f5e1008381611b3357611b32612739565b5b0492506008810190505b6127108310611b62576127108381611b5857611b57612739565b5b0492506004810190505b60648310611b855760648381611b7b57611b7a612739565b5b0492506002810190505b600a8310611b94576001810190505b80915050919050565b6000604051905090565b600080fd5b600080fd5b60007fffffffff0000000000000000000000000000000000000000000000000000000082169050919050565b611be681611bb1565b8114611bf157600080fd5b50565b600081359050611c0381611bdd565b92915050565b600060208284031215611c1f57611c1e611ba7565b5b6000611c2d84828501611bf4565b91505092915050565b60008115159050919050565b611c4b81611c36565b82525050565b6000602082019050611c666000830184611c42565b92915050565b600081519050919050565b600082825260208201905092915050565b60005b83811015611ca6578082015181840152602081019050611c8b565b60008484015250505050565b6000601f19601f8301169050919050565b6000611cce82611c6c565b611cd88185611c77565b9350611ce8818560208601611c88565b611cf181611cb2565b840191505092915050565b60006020820190508181036000830152611d168184611cc3565b905092915050565b6000819050919050565b611d3181611d1e565b8114611d3c57600080fd5b50565b600081359050611d4e81611d28565b92915050565b600060208284031215611d6a57611d69611ba7565b5b6000611d7884828501611d3f565b91505092915050565b600073ffffffffffffffffffffffffffffffffffffffff82169050919050565b6000611dac82611d81565b9050919050565b611dbc81611da1565b82525050565b6000602082019050611dd76000830184611db3565b92915050565b611de681611da1565b8114611df157600080fd5b50565b600081359050611e0381611ddd565b92915050565b60008060408385031215611e2057611e1f611ba7565b5b6000611e2e85828601611df4565b9250506020611e3f85828601611d3f565b9150509250929050565b611e5281611d1e565b82525050565b6000602082019050611e6d6000830184611e49565b92915050565b600080600060608486031215611e8c57611e8b611ba7565b5b6000611e9a86828701611df4565b9350506020611eab86828701611df4565b9250506040611ebc86828701611d3f565b9150509250925092565b600060208284031215611edc57611edb611ba7565b5b6000611eea84828501611df4565b91505092915050565b611efc81611c36565b8114611f0757600080fd5b50565b600081359050611f1981611ef3565b92915050565b60008060408385031215611f3657611f35611ba7565b5b6000611f4485828601611df4565b9250506020611f5585828601611f0a565b9150509250929050565b600080fd5b600080fd5b7f4e487b7100000000000000000000000000000000000000000000000000000000600052604160045260246000fd5b611fa182611cb2565b810181811067ffffffffffffffff82111715611fc057611fbf611f69565b5b80604052505050565b6000611fd3611b9d565b9050611fdf8282611f98565b919050565b600067ffffffffffffffff821115611fff57611ffe611f69565b5b61200882611cb2565b9050602081019050919050565b82818337600083830152505050565b600061203761203284611fe4565b611fc9565b90508281526020810184848401111561205357612052611f64565b5b61205e848285612015565b509392505050565b600082601f83011261207b5761207a611f5f565b5b813561208b848260208601612024565b91505092915050565b600080600080608085870312156120ae576120ad611ba7565b5b60006120bc87828801611df4565b94505060206120cd87828801611df4565b93505060406120de87828801611d3f565b925050606085013567ffffffffffffffff8111156120ff576120fe611bac565b5b61210b87828801612066565b91505092959194509250565b600067ffffffffffffffff82111561213257612131611f69565b5b61213b82611cb2565b9050602081019050919050565b600061215b61215684612117565b611fc9565b90508281526020810184848401111561217757612176611f64565b5b612182848285612015565b509392505050565b600082601f83011261219f5761219e611f5f565b5b81356121af848260208601612148565b91505092915050565b6000602082840312156121ce576121cd611ba7565b5b600082013567ffffffffffffffff8111156121ec576121eb611bac565b5b6121f88482850161218a565b91505092915050565b6000806040838503121561221857612217611ba7565b5b600061222685828601611df4565b925050602061223785828601611df4565b9150509250929050565b7f4e487b7100000000000000000000000000000000000000000000000000000000600052602260045260246000fd5b6000600282049050600182168061228857607f821691505b60208210810361229b5761229a612241565b5b50919050565b60006060820190506122b66000830186611db3565b6122c36020830185611e49565b6122d06040830184611db3565b949350505050565b7f4e487b7100000000000000000000000000000000000000000000000000000000600052601160045260246000fd5b600061231282611d1e565b91507fffffffffffffffffffffffffffffffffffffffffffffffffffffffffffffffff8203612344576123436122d8565b5b600182019050919050565b600081519050919050565b600082825260208201905092915050565b60006123768261234f565b612380818561235a565b9350612390818560208601611c88565b61239981611cb2565b840191505092915050565b60006080820190506123b96000830187611db3565b6123c66020830186611db3565b6123d36040830185611e49565b81810360608301526123e5818461236b565b905095945050505050565b6000815190506123ff81611bdd565b92915050565b60006020828403121561241b5761241a611ba7565b5b6000612429848285016123f0565b91505092915050565b600081905092915050565b600061244882611c6c565b6124528185612432565b9350612462818560208601611c88565b80840191505092915050565b600061247a828561243d565b9150612486828461243d565b91508190509392505050565b60008190508160005260206000209050919050565b60006020601f8301049050919050565b600082821b905092915050565b6000600883026124f47fffffffffffffffffffffffffffffffffffffffffffffffffffffffffffffffff826124b7565b6124fe86836124b7565b95508019841693508086168417925050509392505050565b6000819050919050565b600061253b61253661253184611d1e565b612516565b611d1e565b9050919050565b6000819050919050565b61255583612520565b61256961256182612542565b8484546124c4565b825550505050565b600090565b61257e612571565b61258981848461254c565b505050565b5b818110156125ad576125a2600082612576565b60018101905061258f565b5050565b601f8211156125f2576125c381612492565b6125cc846124a7565b810160208510156125db578190505b6125ef6125e7856124a7565b83018261258e565b50505b505050565b600082821c905092915050565b6000612615600019846008026125f7565b1980831691505092915050565b600061262e8383612604565b9150826002028217905092915050565b61264782611c6c565b67ffffffffffffffff8111156126605761265f611f69565b5b61266a8254612270565b6126758282856125b1565b600060209050601f8311600181146126a85760008415612696578287015190505b6126a08582612622565b865550612708565b601f1984166126b686612492565b60005b828110156126de578489015182556001820191506020850194506020810190506126b9565b868310156126fb57848901516126f7601f891682612604565b8355505b6001600288020188555050505b505050505050565b60006040820190506127256000830185611db3565b6127326020830184611e49565b9392505050565b7f4e487b7100000000000000000000000000000000000000000000000000000000600052601260045260246000fdfea2646970667358221220dea8145a261aaaa9679a460fa8f0f6fad6e3dc227fbab420ae97e3ffd67c5add64736f6c634300081c0033",
  "linkReferences": {},
  "deployedLinkReferences": {}
}